{
  "_format": "hh-sol-artifact-1",
  "contractName": "TodoList",
  "sourceName": "contracts/TodoList.sol",
  "abi": [
    {
      "anonymous": false,
      "inputs": [
        {
          "indexed": true,
          "internalType": "address",
          "name": "user",
          "type": "address"
        },
        {
          "indexed": false,
          "internalType": "uint256",
          "name": "taskId",
          "type": "uint256"
        },
        {
          "indexed": false,
          "internalType": "string",
          "name": "description",
          "type": "string"
        }
      ],
      "name": "TaskAdded",
      "type": "event"
    },
    {
      "anonymous": false,
      "inputs": [
        {
          "indexed": true,
          "internalType": "address",
          "name": "user",
          "type": "address"
        },
        {
          "indexed": false,
          "internalType": "uint256",
          "name": "taskId",
          "type": "uint256"
        }
      ],
      "name": "TaskCompleted",
      "type": "event"
    },
    {
      "anonymous": false,
      "inputs": [
        {
          "indexed": true,
          "internalType": "address",
          "name": "user",
          "type": "address"
        },
        {
          "indexed": false,
          "internalType": "uint256",
          "name": "taskId",
          "type": "uint256"
        }
      ],
      "name": "TaskDeleted",
      "type": "event"
    },
    {
      "inputs": [
        {
          "internalType": "string",
          "name": "_description",
          "type": "string"
        }
      ],
      "name": "addTask",
      "outputs": [],
      "stateMutability": "payable",
      "type": "function"
    },
    {
      "inputs": [
        {
          "internalType": "uint256",
          "name": "_taskId",
          "type": "uint256"
        }
      ],
      "name": "deleteTask",
      "outputs": [],
      "stateMutability": "nonpayable",
      "type": "function"
    },
    {
      "inputs": [],
      "name": "getTasks",
      "outputs": [
        {
          "components": [
            {
              "internalType": "string",
              "name": "description",
              "type": "string"
            },
            {
              "internalType": "bool",
              "name": "completed",
              "type": "bool"
            }
          ],
          "internalType": "struct TodoList.Task[]",
          "name": "",
          "type": "tuple[]"
        }
      ],
      "stateMutability": "view",
      "type": "function"
    },
    {
      "inputs": [
        {
          "internalType": "uint256",
          "name": "_taskId",
          "type": "uint256"
        }
      ],
      "name": "toggleComplete",
      "outputs": [],
      "stateMutability": "nonpayable",
      "type": "function"
    },
    {
      "inputs": [
        {
          "internalType": "address",
          "name": "",
          "type": "address"
        },
        {
          "internalType": "uint256",
          "name": "",
          "type": "uint256"
        }
      ],
      "name": "userTasks",
      "outputs": [
        {
          "internalType": "string",
          "name": "description",
          "type": "string"
        },
        {
          "internalType": "bool",
          "name": "completed",
          "type": "bool"
        }
      ],
      "stateMutability": "view",
      "type": "function"
    }
  ],
  "bytecode": "0x6080604052348015600f57600080fd5b5061155c8061001f6000396000f3fe60806040526004361061004a5760003560e01c806304a87e381461004f5780630951e5bd1461007a578063560f3192146100a357806366873a55146100cc578063672385621461010a575b600080fd5b34801561005b57600080fd5b50610064610126565b6040516100719190610bad565b60405180910390f35b34801561008657600080fd5b506100a1600480360381019061009c9190610c19565b61026e565b005b3480156100af57600080fd5b506100ca60048036038101906100c59190610c19565b61042a565b005b3480156100d857600080fd5b506100f360048036038101906100ee9190610ca4565b6106e5565b604051610101929190610d3d565b60405180910390f35b610124600480360381019061011f9190610ea2565b6107bb565b005b60606000803373ffffffffffffffffffffffffffffffffffffffff1673ffffffffffffffffffffffffffffffffffffffff168152602001908152602001600020805480602002602001604051908101604052809291908181526020016000905b8282101561026557838290600052602060002090600202016040518060400160405290816000820180546101b990610f1a565b80601f01602080910402602001604051908101604052809291908181526020018280546101e590610f1a565b80156102325780601f1061020757610100808354040283529160200191610232565b820191906000526020600020905b81548152906001019060200180831161021557829003601f168201915b505050505081526020016001820160009054906101000a900460ff16151515158152505081526020019060010190610186565b50505050905090565b6000803373ffffffffffffffffffffffffffffffffffffffff1673ffffffffffffffffffffffffffffffffffffffff1681526020019081526020016000208054905081106102f1576040517f08c379a00000000000000000000000000000000000000000000000000000000081526004016102e890610f97565b60405180910390fd5b6000803373ffffffffffffffffffffffffffffffffffffffff1673ffffffffffffffffffffffffffffffffffffffff168152602001908152602001600020818154811061034157610340610fb7565b5b906000526020600020906002020160010160009054906101000a900460ff16156000803373ffffffffffffffffffffffffffffffffffffffff1673ffffffffffffffffffffffffffffffffffffffff16815260200190815260200160002082815481106103b1576103b0610fb7565b5b906000526020600020906002020160010160006101000a81548160ff0219169083151502179055503373ffffffffffffffffffffffffffffffffffffffff167ff684d89bb0f42287bf32838774e4b7f8a60c11804b3c6d1791fa55f3067926438260405161041f9190610ff5565b60405180910390a250565b6000803373ffffffffffffffffffffffffffffffffffffffff1673ffffffffffffffffffffffffffffffffffffffff1681526020019081526020016000208054905081106104ad576040517f08c379a00000000000000000000000000000000000000000000000000000000081526004016104a490610f97565b60405180910390fd5b600060016000803373ffffffffffffffffffffffffffffffffffffffff1673ffffffffffffffffffffffffffffffffffffffff168152602001908152602001600020805490506104fd919061103f565b9050808214610608576000803373ffffffffffffffffffffffffffffffffffffffff1673ffffffffffffffffffffffffffffffffffffffff168152602001908152602001600020818154811061055657610555610fb7565b5b90600052602060002090600202016000803373ffffffffffffffffffffffffffffffffffffffff1673ffffffffffffffffffffffffffffffffffffffff16815260200190815260200160002083815481106105b4576105b3610fb7565b5b9060005260206000209060020201600082018160000190816105d69190611235565b506001820160009054906101000a900460ff168160010160006101000a81548160ff0219169083151502179055509050505b6000803373ffffffffffffffffffffffffffffffffffffffff1673ffffffffffffffffffffffffffffffffffffffff1681526020019081526020016000208054806106565761065561131d565b5b60019003818190600052602060002090600202016000808201600061067b91906109a6565b6001820160006101000a81549060ff0219169055505090553373ffffffffffffffffffffffffffffffffffffffff167fd1bc87501afcaa22b7f6481dac99ed45fbe02321873ca9b55c1f41b9d78b8fb3836040516106d99190610ff5565b60405180910390a25050565b6000602052816000526040600020818154811061070157600080fd5b90600052602060002090600202016000915091505080600001805461072590610f1a565b80601f016020809104026020016040519081016040528092919081815260200182805461075190610f1a565b801561079e5780601f106107735761010080835404028352916020019161079e565b820191906000526020600020905b81548152906001019060200180831161078157829003601f168201915b5050505050908060010160009054906101000a900460ff16905082565b60008151116107ff576040517f08c379a00000000000000000000000000000000000000000000000000000000081526004016107f690611398565b60405180910390fd5b662386f26fc10000341015610849576040517f08c379a000000000000000000000000000000000000000000000000000000000815260040161084090611404565b60405180910390fd5b600060405180604001604052808381526020016000151581525090506000803373ffffffffffffffffffffffffffffffffffffffff1673ffffffffffffffffffffffffffffffffffffffff16815260200190815260200160002081908060018154018082558091505060019003906000526020600020906002020160009091909190915060008201518160000190816108e29190611424565b5060208201518160010160006101000a81548160ff02191690831515021790555050503373ffffffffffffffffffffffffffffffffffffffff167f793f49aab3b9e0d3125d745773b78ac45236f2beeed7c6296e60911e17a0de4260016000803373ffffffffffffffffffffffffffffffffffffffff1673ffffffffffffffffffffffffffffffffffffffff1681526020019081526020016000208054905061098b919061103f565b8460405161099a9291906114f6565b60405180910390a25050565b5080546109b290610f1a565b6000825580601f106109c457506109e3565b601f0160209004906000526020600020908101906109e291906109e6565b5b50565b5b808211156109ff5760008160009055506001016109e7565b5090565b600081519050919050565b600082825260208201905092915050565b6000819050602082019050919050565b600081519050919050565b600082825260208201905092915050565b60005b83811015610a69578082015181840152602081019050610a4e565b60008484015250505050565b6000601f19601f8301169050919050565b6000610a9182610a2f565b610a9b8185610a3a565b9350610aab818560208601610a4b565b610ab481610a75565b840191505092915050565b60008115159050919050565b610ad481610abf565b82525050565b60006040830160008301518482036000860152610af78282610a86565b9150506020830151610b0c6020860182610acb565b508091505092915050565b6000610b238383610ada565b905092915050565b6000602082019050919050565b6000610b4382610a03565b610b4d8185610a0e565b935083602082028501610b5f85610a1f565b8060005b85811015610b9b5784840389528151610b7c8582610b17565b9450610b8783610b2b565b925060208a01995050600181019050610b63565b50829750879550505050505092915050565b60006020820190508181036000830152610bc78184610b38565b905092915050565b6000604051905090565b600080fd5b600080fd5b6000819050919050565b610bf681610be3565b8114610c0157600080fd5b50565b600081359050610c1381610bed565b92915050565b600060208284031215610c2f57610c2e610bd9565b5b6000610c3d84828501610c04565b91505092915050565b600073ffffffffffffffffffffffffffffffffffffffff82169050919050565b6000610c7182610c46565b9050919050565b610c8181610c66565b8114610c8c57600080fd5b50565b600081359050610c9e81610c78565b92915050565b60008060408385031215610cbb57610cba610bd9565b5b6000610cc985828601610c8f565b9250506020610cda85828601610c04565b9150509250929050565b600082825260208201905092915050565b6000610d0082610a2f565b610d0a8185610ce4565b9350610d1a818560208601610a4b565b610d2381610a75565b840191505092915050565b610d3781610abf565b82525050565b60006040820190508181036000830152610d578185610cf5565b9050610d666020830184610d2e565b9392505050565b600080fd5b600080fd5b7f4e487b7100000000000000000000000000000000000000000000000000000000600052604160045260246000fd5b610daf82610a75565b810181811067ffffffffffffffff82111715610dce57610dcd610d77565b5b80604052505050565b6000610de1610bcf565b9050610ded8282610da6565b919050565b600067ffffffffffffffff821115610e0d57610e0c610d77565b5b610e1682610a75565b9050602081019050919050565b82818337600083830152505050565b6000610e45610e4084610df2565b610dd7565b905082815260208101848484011115610e6157610e60610d72565b5b610e6c848285610e23565b509392505050565b600082601f830112610e8957610e88610d6d565b5b8135610e99848260208601610e32565b91505092915050565b600060208284031215610eb857610eb7610bd9565b5b600082013567ffffffffffffffff811115610ed657610ed5610bde565b5b610ee284828501610e74565b91505092915050565b7f4e487b7100000000000000000000000000000000000000000000000000000000600052602260045260246000fd5b60006002820490506001821680610f3257607f821691505b602082108103610f4557610f44610eeb565b5b50919050565b7f5461736b20646f6573206e6f7420657869737400000000000000000000000000600082015250565b6000610f81601383610ce4565b9150610f8c82610f4b565b602082019050919050565b60006020820190508181036000830152610fb081610f74565b9050919050565b7f4e487b7100000000000000000000000000000000000000000000000000000000600052603260045260246000fd5b610fef81610be3565b82525050565b600060208201905061100a6000830184610fe6565b92915050565b7f4e487b7100000000000000000000000000000000000000000000000000000000600052601160045260246000fd5b600061104a82610be3565b915061105583610be3565b925082820390508181111561106d5761106c611010565b5b92915050565b60008154905061108281610f1a565b9050919050565b60008190508160005260206000209050919050565b60006020601f8301049050919050565b600082821b905092915050565b6000600883026110eb7fffffffffffffffffffffffffffffffffffffffffffffffffffffffffffffffff826110ae565b6110f586836110ae565b95508019841693508086168417925050509392505050565b6000819050919050565b600061113261112d61112884610be3565b61110d565b610be3565b9050919050565b6000819050919050565b61114c83611117565b61116061115882611139565b8484546110bb565b825550505050565b600090565b611175611168565b611180818484611143565b505050565b5b818110156111a45761119960008261116d565b600181019050611186565b5050565b601f8211156111e9576111ba81611089565b6111c38461109e565b810160208510156111d2578190505b6111e66111de8561109e565b830182611185565b50505b505050565b600082821c905092915050565b600061120c600019846008026111ee565b1980831691505092915050565b600061122583836111fb565b9150826002028217905092915050565b81810361124357505061131b565b61124c82611073565b67ffffffffffffffff81111561126557611264610d77565b5b61126f8254610f1a565b61127a8282856111a8565b6000601f8311600181146112a95760008415611297578287015490505b6112a18582611219565b865550611314565b601f1984166112b787611089565b96506112c286611089565b60005b828110156112ea578489015482556001820191506001850194506020810190506112c5565b868310156113075784890154611303601f8916826111fb565b8355505b6001600288020188555050505b5050505050505b565b7f4e487b7100000000000000000000000000000000000000000000000000000000600052603160045260246000fd5b7f4465736372697074696f6e2063616e6e6f7420626520656d7074790000000000600082015250565b6000611382601b83610ce4565b915061138d8261134c565b602082019050919050565b600060208201905081810360008301526113b181611375565b9050919050565b7f4d7573742073656e64206174206c6561737420302e3031206574686572000000600082015250565b60006113ee601d83610ce4565b91506113f9826113b8565b602082019050919050565b6000602082019050818103600083015261141d816113e1565b9050919050565b61142d82610a2f565b67ffffffffffffffff81111561144657611445610d77565b5b6114508254610f1a565b61145b8282856111a8565b600060209050601f83116001811461148e576000841561147c578287015190505b6114868582611219565b8655506114ee565b601f19841661149c86611089565b60005b828110156114c45784890151825560018201915060208501945060208101905061149f565b868310156114e157848901516114dd601f8916826111fb565b8355505b6001600288020188555050505b505050505050565b600060408201905061150b6000830185610fe6565b818103602083015261151d8184610cf5565b9050939250505056fea2646970667358221220d525a67218ab17bf5c17bbe1c24101dd160f1f3d2eb37c8ed8f269ec90be2d3964736f6c634300081c0033",
  "linkReferences": {},
  "deployedLinkReferences": {}
}